:020000040800F2
:100000008038002091310008D5050008D705000888
:10001000DB050008DF050008E3050008000000001C
:10002000000000000000000000000000E7050008DC
:10003000E905000800000000EB050008ED050008D8
:10004000AB310008AB310008AB310008AB31000820
:10005000AB310008AB310008AB310008AB31000810
:10006000490800083B08000821080008AB310008D7
:10007000AB310008AB310008AB310008AB310008F0
:10008000AB310008AB310008AB310008AB310008E0
:10009000AB310008AB310008AB310008AB310008D0
:1000A000AB310008AB310008AB310008AB310008C0
:1000B000AB310008AB310008AB310008AB310008B0
:1000C000AB310008AB310008AB310008AB310008A0
:1000D000AB31000807310008AB310008AB31000834
:1000E000AB310008AB310008AB310008AB31000880
:1000F000AB310008AB310008AB310008AB31000870
:10010000AB310008AB310008AB310008AB3100085F
:10011000AB310008AB310008AB310008AB3100084F
:10012000AB310008AB310008AB310008AB3100083F
:1001300000F002F800F045F80AA090E8000C8244B4
:100140008344AAF10107DA4501D100F03AF8AFF291
:10015000090EBAE80F0013F0010F18BFFB1A43F0A5
:10016000010318471445000034450000103A24BF2D
:1001700078C878C1FAD8520724BF30C830C144BF0C
:1001800004680C607047000000230024002500264E
:10019000103A28BF78C1FBD8520728BF30C148BFEA
:1001A0000B607047642904F08580782904F0BE80D4
:1001B000732904F09F81002070471FB51FBD10B543
:1001C00010BD04F0C9F91146FFF7F7FF00F027F85A
:1001D00004F0E7F903B4FFF7F2FF03BC02F038FFC5
:1001E00070B50024002500BFD0480068A0B10020F1
:1001F000CE4960310860002508E02146621CD4B277
:10020000CB4A505C00F034FE681CC5B2202DF4DBF4
:100210000120C649603108603F2CE5DB70BD08B5A0
:10022000002502F0ABFE4FF4165002F020FF00F064
:10023000F7FD00F077FD00F0DBFA00F01DFD01F0A6
:1002400019FE00F008FB00F093FB02F099F801F0B2
:10025000FBFEB8A003F0C4FF01F02DFF01F070FF1A
:1002600001F08AFF60E1012000F085FD074617E0FC
:10027000B4A003F0B5FF4FF4FA7002F0BCFEB6A0D4
:1002800003F0AEFF4FF4FA7002F0B5FEA7487030ED
:10029000006808B9012000E00020A449703108601E
:1002A00000F046FB4EF614718842E1D1AF48007869
:1002B00000F0010000283DD00020AC49086001F0AA
:1002C00055FE002836D0002406E0A948015DA9A00B
:1002D00003F086FF601CC4B21A2CF6DBA6A003F064
:1002E0007FFF002405E0A248005DA4490855601C7A
:1002F000C4B21A2CF7DB002406E0A048015D9DA0E3
:1003000003F06EFF601CC4B21A2CF6DB9AA003F057
:1003100067FF002406E09948015D96A003F060FFA6
:10032000601CC4B21A2CF6DB93A003F059FF01F055
:10033000D3FF00BF012F33D100F0FCFEF80202F022
:1003400085F9012002F057FE0020784970310860DD
:100350008BA003F045FF1AE0012000F00CFD0746DA
:1003600002F09DF989480078012810D1884800885A
:10037000884B4FF4007288490090002002F06DFB1A
:10038000854986A003F02CFF002080490870002FCB
:10039000E2D10120654970310860642002F02BFE33
:1003A000002001F04DFC00F00400002853D004218F
:1003B000002001F033FD00F0BDFE00F074FF00F0FE
:1003C00034FF102000F020FEFFF70AFF74A003F0B6
:1003D00007FF39E075480188491C754803F0D2FFD2
:1003E0006B486C4B0090714802887149002002F004
:1003F000BAFB002600BF4D480068A0B100204B4961
:1004000060310860002408E03146721C96B2684AE8
:10041000505C00F07FFE601CC4B2202CF4DB012095
:10042000424960310860B6F5805FE4DB58480088D7
:10043000584B00905D4802885D49002002F00DFB9A
:100440005B495CA003F0CCFE002001F049FC574959
:1004500008800028BEDC012001F0F2FB00F004005F
:10046000002859D00121084601F0D8FC012001F0F4
:1004700037FC4E4908800846008800284CDD4FF4C0
:1004800000614E4803F07EFF484802884B49012036
:1004900002F0C2FA494947A003F0A2FE4FF40060FF
:1004A00047490880002047490870002513E0434869
:1004B000405D0A2805D143480078401C4149087036
:1004C00007E03E48405D20B93E4800783E4908704C
:1004D00005E0681C85B23A4800888542E7DB00BF2A
:1004E00038480078C2003949344800F033FB012213
:1004F0003649091F344800F02DFB062233491F48B6
:1005000000F090FA1D4932A003F06AFE27480288E5
:100510002A49012002F014FA012001F09AFB1C285C
:1005200001D101F029FE00BF9DE60000300121420B
:100530000000002073797374656D20726561640D2D
:100540000A000000323551363420436865636B2061
:100550004661696C65642100506C65617365204378
:100560006865636B2120202020202000830000206C
:10057000362B0020256400000D0A000040000020FA
:10058000537065616B696E670D0A000048000020BA
:10059000880000208400002004090020257300004A
:1005A0004C697374656E696E670D0A008A000020DD
:1005B000040B002025730D0A000000000401002038
:1005C00052000020D0000020AC000020D4FE1F000C
:1005D00025730A00704700BFFEE700BFFEE700BFBB
:1005E000FEE700BFFEE770477047704770470000A6
:1005F0000CB50020019000906C48006840F48030F9
:100600006A49086000BF6948006800F40030009043
:100610000198401C0190009818B90198B0F5A06F9E
:10062000F1D16248006800F4003010B10120009060
:1006300001E0002000900098012843D15C48006848
:1006400040F010005A4908600846006820F0030096
:1006500008600846006840F002000860534840689F
:10066000524948600846406848600846406840F47F
:10067000806048600846406820F47C104860084666
:10068000406840F4E81048600846006840F0807018
:10069000086000BF4548006800F000700028F9D0ED
:1006A0004248406820F003004049486008464068DE
:1006B00040F00200486000BF3C48406800F00C0079
:1006C0000828F9D10CBD10B5FFF792FF10BD10B589
:1006D0003648006840F00100344908600846406828
:1006E00034490840314948600846006832490840AA
:1006F0002E4908600846006820F4802008600846FB
:10070000406820F4FE0048604FF41F008860FFF747
:10071000DAFF4FF000602949086010BD10B50021D4
:1007200000200022214B5B6803F00C0121B1042959
:1007300006D0082928D107E0214B224C236027E06E
:100740001F4B204C236023E0184B5B6803F47010B0
:10075000164B5B6803F48032022303EB904022B90E
:10076000194B4343174C23600DE0104B5B6803F4B7
:10077000003323B1144B4343124C236003E0104B6E
:100780004343104C236003E00D4B0E4C236000BF2D
:1007900000BF064B5B68C3F303130C4CE15C094BD1
:1007A0001B68CB40074C236010BD000000100240C6
:1007B000002002400000FFF8FFFFF6FE08ED00E019
:1007C00000127A005400002000093D00580000206B
:1007D00010B500200F4908604FF47A7002F00BFC4E
:1007E00001200D49C1F8A001C82002F004FC10BD91
:1007F00008B50121202003F007F80420ADF800001F
:100800006946064802F044FD0421044802F0EDFD6B
:1008100008BD0000A0012142000021420014014057
:1008200010B50A2002F0E7FB4048006808B900F064
:100830003EFA102003F0C9FC10BD10B501F066FBB4
:10084000082003F0C2FC10BD10B501F02DFB042000
:1008500003F0BBFC10BD0EB50121084602F0D4FF29
:1008600000F00AFA01F006FB0421022002F026FE45
:100870001020019000208DF808000C208DF8090050
:1008800001208DF80A0001A803F028FC03210220B2
:1008900002F014FE0820019000208DF808000C20C2
:1008A0008DF8090001208DF80A0001A803F016FC5C
:1008B0000221084602F002FE0420019000208DF87B
:1008C000080008208DF8090001208DF80A0001A811
:1008D00003F004FC0A208DF8000002208DF80100CE
:1008E0008DF8020001208DF80300684603F0F9F945
:1008F00009208DF8000002208DF8010001208DF8FC
:1009000002008DF80300684603F0EBF908208DF82B
:10091000000002208DF8010000208DF80200012067
:100920008DF80300684603F0DCF90EBD1001224289
:1009300010B500240020CB490860902000F098FA00
:10094000002000F095FA002000F092FA002000F05C
:100950008FFAFF2000F08CFA44EA0024FF2000F018
:1009600087FA04430120C049C1F88801204610BD20
:1009700008B50121042002F047FF0420ADF8000073
:1009800010208DF8030003208DF802006946B74857
:1009900002F07EFC0421B54802F027FD00F08FFA3A
:1009A000082000F0C2FAFFF7C3FFB149088008BD74
:1009B00010B500240020AB490860052000F058FA6B
:1009C000FF2000F055FA04460120A749C1F888012C
:1009D000204610BD10B504460020A2490860012041
:1009E00000F046FA204600F043FA01209E49C1F883
:1009F000880110BD10B500209A490860062000F05B
:100A000037FA01209849C1F8880110BD10B50020BF
:100A100094490860042000F02BFA01209249C1F8A3
:100A2000880110BD2DE9F04106460C46174600200E
:100A30008C490860032000F01BFAC4F3074000F063
:100A400017FAC4F3072000F013FAE0B200F010FA2E
:100A5000002505E0FF2000F00BFA7055681C85B2F8
:100A6000BD42F7DB01207F490860BDE8F08110B589
:100A700000BFFFF79DFF00F001000028F9D110BD75
:100A80002DE9F04106460C461746FFF7B3FF00205C
:100A900074490860022000F0EBF9C4F3074000F04D
:100AA000E7F9C4F3072000F0E3F9E0B200F0E0F961
:100AB000002504E0705D00F0DBF9681C85B2BD42E2
:100AC000F8DB012067490860FFF7D1FFBDE8F0813E
:100AD0002DE9F04107460E461446F0B2C0F5807588
:100AE000AC4200DC254612E02A4631463846FFF784
:100AF000C7FFAC4200D10BE02F442E44601B84B2F0
:100B0000B4F5807F02DD4FF4807500E02546EBE709
:100B100000BFBDE8F08110B504462403FFF76AFF6B
:100B2000FFF7A5FF00204F490860202000F0A0F942
:100B3000C4F3074000F09CF9C4F3072000F098F9D3
:100B4000E0B200F095F901204749C1F88801FFF7AC
:100B50008EFF10BD2DE9F04781460F4616464FEA3D
:100B60001738C7F30B0ACAF58054A64200DC344696
:100B700044E04FEA08314FF480523E48FFF752FFFD
:100B8000002508E00AEB05003A49085CFF2800D080
:100B900003E0681C85B2A542F4DB00BFA54216DA6B
:100BA0004046FFF7B8FF002507E019F8050005EB00
:100BB0000A01304A5054681C85B2A542F5DB4FEA61
:100BC00008314FF480522B48FFF782FF04E02246A1
:100BD00039464846FFF77CFFA64200D10FE008F1F6
:100BE00001084FF0000AA1442744301B86B2B6F535
:100BF000805F02DD4FF4805400E03446B9E700BF67
:100C0000BDE8F08710B5FFF7F5FEFFF730FF0020D5
:100C100014490860C72000F02BF901201249C1F8DF
:100C20008801FFF724FF10BD10B500200D490860B2
:100C3000B92000F01DF901200B49C1F888010320FB
:100C400002F0B5F910BD10B5002006490860AB20D0
:100C500000F00EF901200449C1F88801032002F0D8
:100C6000A6F910BD88012142000021420008014080
:100C700068000020041B002008B50121142002F0A8
:100C8000C3FD0121224802F0D4FB1020ADF8000082
:100C900048208DF8030069461E4802F0F9FA08BDA5
:100CA0001D48006808B9012070470020FCE710B516
:100CB0001A48006808B9012000E0002017490860C0
:100CC0004FF4967002F097F91548D0F8A00108B9D2
:100CD000012000E00020114908604FF4967002F0F6
:100CE0008AF90F48D0F8A00108B9012000E00020DF
:100CF0000A4908604FF4967002F07DF90848D0F870
:100D0000A00108B9012000E000200449086010BDDE
:100D1000000230000010014010012242A0012142D7
:100D20000000214208B50121142002F06DFD0121CF
:100D3000374802F07EFB4FF40050ADF80000482029
:100D40008DF803006946334802F0A2FA0220ADF89C
:100D5000000048208DF8030069462E4802F098FAFA
:100D60000120ADF8000028208DF8030069462A48CC
:100D700002F08EFA08BD10B5044614B101202749CF
:100D800008702648007868B30221224802F013FB5D
:100D900058B14FF400511F4802F00DFB28B101215A
:100DA0001D4802F008FB01281CD10A2002F023F99B
:100DB00000201A4908700221164802F0FCFA08B90E
:100DC000012010BD4FF40051124802F0F4FA08B9A6
:100DD0000220F6E70121104802F0EDFA012815D1B2
:100DE0000320EEE702210B4802F0E5FA01280DD1BD
:100DF0004103084802F0DFFA012807D10121064823
:100E000002F0D9FA10B90120044908700020D8E78F
:100E10000002300000100140000801406A0000207C
:100E200008B50121242002F0EFFC4FF48070ADF8EA
:100E3000000010208DF8030003208DF802006946A1
:100E4000094802F025FA4FF48071074802F0CDFA04
:100E50000420ADF800006946044802F019FA0421A4
:100E6000024802F0C2FA08BD000801400014014027
:100E700070B50546002405E0601CC4B2C82C01DD35
:100E8000002070BD02219D4803F0E3F80028F3D054
:100E900029469A4803F08AF8002405E0601CC4B291
:100EA000C82C01DD0020ECE70121944803F0D1F8C3
:100EB0000028F3D0914803F07BF8C0B2E1E708B511
:100EC000012141F2040002F09FFCE020ADF8000097
:100ED00018208DF8030003208DF802006946884829
:100EE00002F0D6F9E021864802F07FFA0020854919
:100EF00008804FF482704880002088800220C880DB
:100F00000120088140024881382088810020C88162
:100F100007200882794802F073FF0121774803F027
:100F200014F8FF20FFF7A4FF08BD10B5044675486C
:100F300084810146714802F063FF01216F4803F08C
:100F400004F810BD70B50546002405E0601CC4B26D
:100F5000C82C01DD002070BD02216B4803F079F838
:100F60000028F3D02946684803F020F8002405E063
:100F7000601CC4B2C82C01DD0020ECE701216248EE
:100F800003F067F80028F3D05F4803F011F8C0B20F
:100F9000E1E708B50121082002F036FC01218803B1
:100FA00002F03FFC4FF46040ADF8000018208DF8CF
:100FB000030003208DF802006946544802F068F9E6
:100FC0004FF46041514802F010FA00204D4908806A
:100FD0004FF482704880002088800220C880012061
:100FE000088140024881382088810020C88107207C
:100FF0000882454802F004FF0121434802F0A5FFA2
:10100000FF20FFF79FFF08BD10B504463D488481CF
:1010100001463D4802F0F4FE01213B4802F095FFF5
:1010200010BD70B50546002405E0601CC4B2C82C94
:1010300001DD002070BD0221354803F00AF80028C8
:10104000F3D02946324802F0B1FF002405E0601CCD
:10105000C4B2C82C01DD0020ECE701212C4802F0CD
:10106000F8FF0028F3D02A4802F0A2FFC0B2E1E75F
:1010700008B50121082002F0C7FB0121C80302F0D6
:10108000D0FB3820ADF8000018208DF803000320B5
:101090008DF8020069461D4802F0FAF838211B4815
:1010A00002F0A3F90020174908804FF482704880AD
:1010B000002088800220C8800120088140024881E9
:1010C000382088810020C88107200882104802F05B
:1010D00097FE01210E4802F038FFFF20FFF7A1FF25
:1010E00008BD10B50446074884810146084802F04F
:1010F00087FE0121064802F028FF10BD00300140A4
:1011000000080140042B002000380040000C014082
:10111000003C004010B504462046FFF713FF10BD09
:1011200010B52820FFF770FF10BD10B51020FFF795
:101130006BFF10BD08B501210C2002F065FB4FF4D8
:101140008050ADF8000048208DF8030003208DF892
:1011500002006946FE4802F09BF841F61000ADF827
:10116000000010208DF803006946FA4802F090F85C
:1011700041F61001F74802F038F94FF48051F44875
:1011800002F033F9FFF705FF08BD70B505460C46C0
:1011900000BFF14800680028FBD0FFF7C1FF012025
:1011A000ED49603108600020EC49C1F8B00102202F
:1011B000FFF7B0FF2846FFF7ADFF2012FFF7AAFFA9
:1011C000E0B2FFF7A7FF0120E5490860FFF7ADFF98
:1011D00070BD70B50546002400BFDF4800680028D8
:1011E000FBD0FFF79DFF0120DB4960310860002044
:1011F000DA49C1F8B0010320FFF78CFF2846FFF75A
:1012000089FFFF20FFF786FF04464FF6FF7000EAD4
:101210000424FF20FFF77EFF204484B20120D04940
:101220000860FFF782FF204670BD10B5002400BFA4
:10123000C94800680028FBD0FF20FFF76BFF00249F
:101240000DE040F604010020FFF79FFF022001F0AF
:10125000D2FE2046611CCCB2642800DD05E00020EF
:10126000FFF7B7FFB0F5006FEBD100BF00BFBA4882
:1012700000680028FBD000240AE04FF41841032046
:10128000FFF783FF2046611CCCB2642800DD05E037
:101290000320FFF79EFFB0F5184FEED100BF1420DA
:1012A00001F0A9FE10BD10B500240020AA497C3130
:1012B0000860142001F09FFE0120AA49C1F89001A6
:1012C000A7490860A749C1F8AC0104E0601CC4B29A
:1012D000322001F06CFEA048006808B9C82CF5DB8C
:1012E000142001F088FEC82C01DB012010BD002075
:1012F000FCE710B5FFF7D7FF42F220010B20FFF704
:1013000044FF4FF402610020FFF73FFF00BF924807
:1013100000680028FBD0FFF703FF00208E496031F2
:1013200008605320FFF7F6FEEF20FFF7F3FE6E2074
:10133000FFF7F0FE2420FFF7EDFE0020FFF7EAFEA6
:101340000020FFF7E7FE0020FFF7E4FE0020FFF794
:10135000E1FE642001F04FFE01208249C1F89001B6
:1013600000207D49603108604520FFF7D3FE7820DA
:10137000FFF7D0FE6920FFF7CDFE7420FFF7CAFE0D
:101380000020FFF7C7FE0020FFF7C4FE0020FFF794
:10139000C1FE0020FFF7BEFE642001F02CFE0120FC
:1013A0006D4960310860002008605320FFF7B2FEED
:1013B000EF20FFF7AFFE6E20FFF7ACFE4420FFF7F3
:1013C000A9FE0020FFF7A6FE0020FFF7A3FE0020E5
:1013D000FFF7A0FE0020FFF79DFE642001F00BFE4A
:1013E00001205D4960310860002008604520FFF75A
:1013F00091FE7820FFF78EFE6920FFF78BFE7420A8
:10140000FFF788FE0020FFF785FE0020FFF782FE31
:101410000020FFF77FFE0020FFF77CFE642001F034
:10142000EAFD01204F49C1F8900110BD10B5FFF74A
:101430003AFF4FF402610020FFF7A7FE00BF4648C5
:1014400000680028FBD0FFF76BFE002042496031A6
:1014500008604D20FFF75EFEEA20FFF75BFE6D207F
:10146000FFF758FE5420FFF755FE0020FFF752FE0D
:101470000020FFF74FFE0020FFF74CFE0020FFF793
:1014800049FE01203749C1F89001962001F0B3FDD3
:101490000820FFF79EFE10BD10B50446FFF745FE7D
:1014A00000202D49603108602046FFF733FE0120FF
:1014B0002C49C1F8900110BD70B5044621460720A3
:1014C000FFF763FE0620FFF784FE0546284670BD41
:1014D00010B5044641F604610720FFF756FE00BF31
:1014E0001D4800680028FBD021460620FFF74DFE6E
:1014F00010BD70B50820FFF76CFE05460920FFF708
:1015000068FE044644F66771601A8C421DD00DDCFB
:10151000A4F58040A0F5A270A8B1102812D0B0F5B3
:101520003F6F11D0B0F5416F34D10AE0A0F2E67000
:1015300060B1A0F6FF6050B1A0F58050193848BBEB
:1015400000BF00BF00BF00BF00BF00BF00BF0BE077
:10155000000C01400008014030012142008021427E
:10156000B08121420000214268001921B0FBF1F452
:101570000A20B4FBF0F100FB1140052805D90A2030
:10158000B4FBF0F0401C80B270BD0A20B4FBF0F058
:1015900080B2F9E7E40804F00304032C01D101242C
:1015A00000E00024B64800EB4410290B30F811008D
:1015B000EAE710B541F60560FFF77EFF10BD10B5F4
:1015C00041F60660FFF778FF10BD70B50546AD48DF
:1015D000006888B10020AB4960310860002404E055
:1015E000285DFFF797FD601CC4B2202CF8DB0120BA
:1015F000A4496031086001E0012070BD0020FCE7D3
:1016000070B588B0002604E000200DF80600701CBC
:10161000C6B2202EF8DB0020FFF7DBFD044644F0C5
:10162000080444F0040421460020FFF7AEFD002525
:101630000EE06846FFF7C9FF50B905F1200085B2FA
:101640000020FFF7C6FD044604F0080000B902E0E0
:10165000B5F5006FEDDB00BFB5F5006F19DAFFF7E8
:10166000AEFFC4B2002604E0E0B20DF80600701C24
:10167000C6B2202EF8DB002506E06846FFF7A5FF7E
:1016800010B905F1200085B240F604008542F4DB74
:1016900001E0FFF7CAFD0820FFF79BFD0446092083
:1016A000FFF797FD204484B21CB1FFF7FCFDFFF764
:1016B000BCFD08B070BD10B500210420FFF765FD2A
:1016C00000210420FFF761FD10BD10B500240420A7
:1016D000FFF77FFD0446204610BD2DE9F047044684
:1016E000884600252DE02846691C8DB234F810701C
:1016F0002846691C8DB234F8106006F4004088B1A9
:10170000C6F30E062846691C8DB234F8109003E02B
:10171000F8B24946FFF739FD301EA6F101018EB23D
:101720000FD0F5E708E02846691C8DB234F8109018
:10173000F8B24946FFF729FD301EA6F101018EB22D
:10174000F1D14545CFDBBDE8F08770B505460024F3
:10175000C5F1FE0084B24FF6FF7000EA0424C5F123
:10176000FE00204484B221460B20FFF70EFD70BD21
:101770002DE9F04706460F4690461D460024A14637
:1017800005B90AE0082D04DDA5F108004FFA80F93B
:1017900003E0A5F109004FFA80F909F00F044FF6B4
:1017A000FF7000EA041408F00F0004444FF6FF70C5
:1017B00000EA041407F00F0004444FF6FF7000EA3B
:1017C000041406F00F00204484B221460220FFF7E3
:1017D000DCFCBDE8F08770B505460020FFF7F9FC9A
:1017E000044605F0010010B144F0100401E024F0BB
:1017F000200405F0020010B144F0800401E024F060
:10180000800421460020FFF7C0FC70BD10B51E49C2
:101810000878FFF79AFF1C4C2379E278A17860786A
:10182000FFF7A6FF21464879FFF7D5FF10BD2DE948
:10183000F04100240025002614480079C0F1FF067D
:1018400035464FF6FF7000EA0525A81985B2002736
:1018500009E04FF6FF7000EA04140C48C05D204414
:1018600084B2781CC7B2042FF3DB21460220FFF7B5
:101870008CFC29460B20FFF788FCBDE8F0810000B6
:10188000C045000830012142710000206C0000209A
:101890000146FE48405C7047FC4A115470470146BF
:1018A000FB4830F8110070470146FA4830F8110043
:1018B000704710B5002000F071FC10BD10B501207C
:1018C00000F06CFC10BD10B50446204600F076FC1C
:1018D00010BD70B504460D46FFF7EBFFC4F307409B
:1018E000FFF7F1FFC4F30720FFF7EDFF04F0F80165
:1018F000091DC8B2FFF7E7FF2846FFF7E4FFFFF72F
:10190000DDFF70BD70B504460025FFF7D2FFC4F3BC
:101910000740FFF7D8FFC4F30720FFF7D4FF04F018
:10192000F800FFF7D0FF0020FFF7CDFF0546FFF7D7
:10193000C5FF284670BD2DE9F04104460F46154607
:10194000002615B9D4A002F04BFCFFF7B2FFC4F398
:101950000740FFF7B8FFC4F30720FFF7B4FF04F018
:10196000F801091DC8B2FFF7AEFF002604E0B85D1C
:10197000FFF7A9FF701C86B2AE42F8DBFFF79EFFAF
:101980002846BDE8F0812DE9F04104460F46154692
:10199000002615B9C0A002F023FCFFF78AFFC4F3AC
:1019A0000740FFF790FFC4F30720FFF78CFF04F018
:1019B000F800FFF788FF002605E00020FFF783FF0F
:1019C000B855701C86B2AE42F7DBFFF777FF2846AA
:1019D000BDE8F08110B5044621460020FFF779FFED
:1019E00010BD10B58020FFF7F5FF10BD2DE9F041C7
:1019F00005460E460027B846002489E0295D41F6D9
:101A0000087202EB4410FFF764FF315D41F6086293
:101A100002EB4410FFF75DFF00209E4921F81400FF
:101A20009B4921F81400B7F5804F32DC285D04286B
:101A300016D004DC012807D0022823D10AE00828A8
:101A400014D010281ED117E04FF48060914921F87E
:101A500014001DE04FF400608E4921F8140017E0D7
:101A60004FF480508B4921F8140011E04FF40050DE
:101A7000884921F814000BE04FF48040854921F893
:101A8000140005E04FF40060814921F8140000BF04
:101A900000BFB8F5804F32DC305D042816D004DC7E
:101AA000012807D0022823D10AE0082814D01028E2
:101AB0001ED117E04FF48060754921F814001DE035
:101AC0004FF40060724921F8140017E04FF4805081
:101AD0006F4921F8140011E04FF400506C4921F8CF
:101AE00014000BE04FF48040694921F8140005E030
:101AF0004FF40060664921F8140000BF00BF65483C
:101B000030F814000744624830F814008044641C24
:101B1000082CFFF673AFBDE8F08110B5044604222F
:101B200021469001FFF707FF10BD10B504460422BF
:101B300021469001FFF727FF10BD10B5044604228F
:101B400021464FF4A060FFF7F6FE10BD10B5044625
:101B5000062221464FF41060FFF7EDFE10BD10B5D0
:101B60000446042221464FF47060FFF7E4FE10BDE6
:101B700010B50446042221469001FFF704FF10BD72
:101B800010B50446042221464FF4A060FFF7FBFE87
:101B900010BD10B50446062221464FF41060FFF731
:101BA000F2FE10BD10B50446042221464FF47060C9
:101BB000FFF7E9FE10BD10B54FF4A850FFF7A2FEE5
:101BC00010BD10B50446210A4FF4C850FFF781FE3E
:101BD000E1B24FF4D050FFF77CFE10BD10B50446C3
:101BE00021464FF4D850FFF774FE10BD70B504467F
:101BF000FFF7E1FF60EA0400C5B229464FF4A850A0
:101C0000FFF767FE70BD70B504460D46290A41F224
:101C1000082202EB4410FFF75CFEE9B241F2083201
:101C200002EB4410FFF755FE70BD70B504460D463B
:101C300041F2086101EB44102946FFF74AFE70BDEE
:101C400010B504464FF4027101EB4410FFF75AFE41
:101C500010BD10B504464FF4427101EB4410FFF77C
:101C600051FE10BD70B504460025002600BF42F2AB
:101C7000080101EB4410FFF745FE064642F2081149
:101C800001EB4410FFF73EFE12E000007800002058
:101C9000262B0020162B0020556E65787065637426
:101CA000656432206C656E67746820300D0A000030
:101CB00000EB062086B27EB142F2080101EB44102F
:101CC000FFF720FE054642F2081101EB4410FFF732
:101CD00019FE00EB052085B2B542C8D1284670BD7B
:101CE00070B504460025002600BF42F2086101EBF2
:101CF0004410FFF707FE064642F2087101EB44105C
:101D0000FFF700FE00EB062086B27EB142F20861CA
:101D100001EB4410FFF7F6FD054642F2087101EBB6
:101D20004410FFF7EFFD00EB052085B2B542DCD192
:101D3000284670BD2DE9F04104460F4616460025A1
:101D4000A8462EB921463BA002F04AFABDE8F08130
:101D500042F2084101EB4410FFF7D4FD054642F280
:101D6000085101EB4410FFF7CDFD00EB052085B2D3
:101D7000280200EB441000F1100832463946404674
:101D8000FFF7D9FDA81985B2290A42F2084202EBF1
:101D90004410FFF79EFDE9B242F2085202EB4410F4
:101DA000FFF797FD00BFD1E72DE9F04104460F464C
:101DB00016460025A8462EB9214626A002F010FAA4
:101DC000BDE8F08142F6080101EB4410FFF79AFDEF
:101DD000054642F6081101EB4410FFF793FD00EBB6
:101DE000052085B2280200EB441000F118083246A5
:101DF00039464046FFF7C7FDA81985B2290A42F6C1
:101E0000080202EB4410FFF764FDE9B242F6081243
:101E100002EB4410FFF75DFD00BFD1E770B504464B
:101E20000D464FF4027101EB44102946FFF751FDB6
:101E300070BD000043483A20256420556E657870D7
:101E4000656374656431206C656E67746820300D5D
:101E50000A00000043483A20256420556E657870DA
:101E6000656374656432206C656E67746820300D3C
:101E70000A00000008B50121102001F0C5FC042073
:101E8000ADF8000048208DF803006946644801F071
:101E9000FFF90820ADF8000048208DF803006946DE
:101EA0005F4801F0F5F908BD5E48007848B90020A8
:101EB0005D4908705D495B4A127888545C49087036
:101EC00015E058480078192805DA00215748554A86
:101ED000127881540BE053480078192807D100206C
:101EE00054490870002151484E4A127881544D4897
:101EF0000078401C4B490870084600781A2804D125
:101F00000020087001204A49087070474548007851
:101F100038B90120444908704449424A127888542B
:101F200015E040480078192805DA01213F483D4A6C
:101F3000127881540BE03B480078192807D1012022
:101F40003C49087001213948364A12788154354895
:101F50000078401C33490870084600781A2804D1DC
:101F6000002008700120324908707047F0B5002445
:101F7000002500260022012307E02C48C05C00F069
:101F8000010008B1501CC2B25B1C0C2BF5DD264FC2
:101F90003F78D01900EBD0777F10A0EB47040022E8
:101FA000B4B90D2107E02148405C00F0010008B100
:101FB000501CC2B2491C1829F5DD1E4F3F78D019BC
:101FC00000EBD0777F10A0EB4705002205B101267A
:101FD000F0B2F0BD10B500241EE01448005D68B9F1
:101FE000002015490860C82001F005F801201349B8
:101FF000C1F8A001C82000F0FEFF0CE0002010494D
:102000000860C82000F0F7FF01200E49C1F88801E0
:10201000C82000F0F0FF641C192CDEDD10BD0000AC
:10202000001001408000002081000020362B00209D
:102030008300002082000020A001214200002142F4
:10204000888122420080224208B54FF48050ADF8CA
:10205000000003208DF8020010208DF8030069466F
:10206000634801F015F94FF48051614801F0BDF962
:102070004FF40070ADF8000003208DF8020010202E
:102080008DF8030069465B4801F002F94FF40071D6
:10209000584801F0AAF94020ADF8000003208DF85F
:1020A000020048208DF803006946514801F0F0F81D
:1020B000FEF7DEFF08BD08B500F062F94E48FFF7F5
:1020C00045FD4E48FFF739FD4D48FFF726FD4D48C9
:1020D000FFF745FD4C494D48FFF788FC4FF4FA6087
:1020E000FFF76FFD0320FFF779FD4948FFF75AFD21
:1020F0004748C0780090464883784278017845A0E8
:1021000002F06EF84248FFF73BFD4148C07800906E
:102110003F4883784278017843A002F061F83C4858
:10212000FFF726FD3A48C078009039488378427816
:10213000017842A002F054F845A002F051F808BD21
:1021400010B50020FFF785FD04460BE054B90023CD
:10215000444802880221184600F0E4FA0020FFF704
:1021600078FD044684F022000028EFD13D48018824
:102170003DA002F035F810BD10B5002420233F48E3
:1021800002880121084600F0CDFA012000F02AFB68
:102190003A4801883AA002F023F810BD10B5044671
:1021A0002CB94FF48051124801F021F905E0012CBF
:1021B00003D121030E4801F018F910BD10B50446F3
:1021C00000BF0221334801F044FF0028F9D0214626
:1021D000304801F0EBFE00BF01212E4801F039FF2D
:1021E0000028F9D02B4801F0E3FEC0B210BD00007A
:1021F00000100140000C01408C00002096000020DF
:102200009A00002092000020C4000020BC000020A2
:102210009E0000204950203A2025642E25642E255A
:10222000642E25640D0A0000534E203A2025642EAA
:1022300025642E25642E25640D0A00004757203A98
:102240002025642E25642E25642E25640D0A0000A9
:102250004E6574776F726B20697320726561647963
:102260002E0D0A00A200002055445020706F727499
:102270002069732025640D0A00000000A4000020DE
:1022800054435020706F72742069732025640D0AC6
:1022900000000000003C004010B5FEF799FA10BDA8
:1022A00010B500202D490860C82000F0A4FE0120D0
:1022B0002B49C1F8A001C82000F09DFE002027494D
:1022C0000860C82000F097FE01202549C1F8A00150
:1022D000C82000F090FE10BD70B5002500202149F7
:1022E000086021480021018000F048FD1F48008857
:1022F000A0F5987101221C48FEF794FB1A4800785B
:102300001B490870002417E018480088A0F5967053
:10231000411908221748FEF785FB164800F0E8FD32
:102320001548006815490968884203D101200D4904
:10233000086005E00835641C0D4800788442E3DB42
:1023400000BF0848006810B9FFF7AAFF05E005487C
:102350000068012801D1FFF79FFF70BDA001214255
:1023600000002142B0000020AC000020BC45000865
:10237000D000002040000020D8000020DC00002019
:1023800010B54FF40071964801F031F8022000F0CA
:102390000EFE4FF40071924801F027F84FF4C86028
:1023A00000F029FE10BD70B5002044682546A847FE
:1023B00070BD00B585B0012144F2040001F024FA9B
:1023C0004FF40070ADF8000003208DF802001820D3
:1023D0008DF803006946834800F05AFF4FF480608F
:1023E000ADF8000004208DF8030069467D4800F038
:1023F0004FFF4FF4E13001900020ADF80800ADF838
:102400000A00ADF80C00ADF810000C20ADF80E007D
:10241000012240F22551744801F035FB01A97248B0
:1024200001F099FA0121704801F021FB05B000BDCF
:1024300010B5044621466C4801F086FB00BF8021A0
:10244000694801F0EFFB0028F9D010BD10B5044633
:102450000BE014F8011B644801F076FB00BF8021FB
:10246000614801F0DFFB0028F9D020780028F0D186
:1024700010BD1CB55D48FFF769FB5C480C30FFF7E9
:102480005CFB5A481030FFF748FB58480830FFF70C
:1024900066FB57495748FFF7A9FA4FF4FA60FFF770
:1024A00090FB0320FFF79AFB01A8FFF77BFB9DF849
:1024B000070000909DF806309DF805209DF8041057
:1024C0004DA001F08DFE01A8FFF75AFB9DF8070013
:1024D00000909DF806309DF805209DF804104BA053
:1024E00001F07EFE01A8FFF743FB9DF80700009076
:1024F0009DF806309DF805209DF8041048A001F0D5
:102500006FFE1CBD10B500230020002107E0374CF2
:10251000625C5C1CA3B24C1CA1B2441CA0B21D287E
:10252000F5DB10BD86B043A103C9CDE9040143A08A
:102530000068039042A00068029042A000680190E9
:1025400041A0006800902948001F0399C1600299CA
:1025500001610199416104994160BDF81410018144
:102560000099816100202149091F087701204877DF
:102570000020C88381F820000120887200211B48B8
:10258000001FC17206B0704700B50023002203E0AF
:1025900016488354501C82B21D2AF9D31348001FD9
:1025A0000079FF281AD11148001F4079FF2815D162
:1025B0000E48001F8079FF2810D10C48001FC079F9
:1025C000FF280BD10948001F007AFF2806D10748D1
:1025D000001F407AFF2801D1FFF7A4FF00BD0000D3
:1025E000000C01400008014000380140542B00203D
:1025F000C4000020BC0000204950203A2025642E51
:1026000025642E25642E25640D0A0000534E203AC1
:102610002025642E25642E25642E25640D0A0000D5
:102620004757203A2025642E25642E25642E2564E4
:102630000D0A00000008DC1111110000C0A8016F94
:10264000FFFFFF00C0A801010808080810B50446F4
:1026500000210220FEF799FD4FF4FA510C20FEF7FD
:1026600094FD21460D20FEF790FD00210E20FEF77F
:102670008CFD06210F20FEF788FD4FF4005103204A
:10268000FEF783FD41F604010020FEF77EFD0520E4
:1026900000F0B1FC28211348FFF71FF810BD70B5FA
:1026A00000250920FEF795FD0446FF2C19DDB4F541
:1026B000607F16DA01200C49087000BF0EE0082088
:1026C000FEF787FD04462846691C8DB207490C5465
:1026D00022122846691C8DB204490A54B5F5007FC0
:1026E000EDDB70BD00460008480000200409002012
:1026F00010B504464FF4847101EB44101021FFF72C
:10270000E8F800BF4FF4847101EB4410FFF7FAF8CA
:102710000028F7D14FF4027101EB4410FF21FFF7BD
:10272000D8F810BD2DE9F04104460D4616469846EE
:1027300005F00F0001280FD005F00F0002280BD084
:1027400005F00F00032807D005F00F00042803D080
:1027500005F00F00052841D12046FFF7C9FF45EAE3
:102760000801082202EB4410FFF7B3F876B1310AF2
:102770004FF4816202EB4410FFF7ABF8F1B24FF473
:10278000A16202EB4410FFF7A4F815E0FE480088B0
:10279000401CFD4908800A461288110A4FF48162E4
:1027A00002EB4410FFF795F8F74A11784FF4A16255
:1027B00002EB4410FFF78DF84FF4847101EB4410E5
:1027C0000121FFF786F800BF4FF4847101EB44103C
:1027D000FFF798F80028F7D1012700E000273846D6
:1027E000BDE8F08170B504464FF4427101EB44102E
:1027F000FFF788F8132811D14FF4847101EB4410CE
:102800000221FFF766F800BF4FF4847101EB44101A
:10281000FFF778F80028F7D1012500E000252846C9
:1028200070BD2DE9F04105460C4616462078FF287C
:1028300008D16078FF2805D1A078FF2802D1E07880
:10284000FF2808D0207828B9607818B9A07808B98E
:10285000E07800B10EB900275CE00127217840F64E
:10286000084202EB4510FFF734F8617840F6085251
:1028700002EB4510FFF72DF8A17840F6086202EB55
:102880004510FFF726F8E17840F6087202EB451094
:10289000FFF71FF8310A41F2080202EB4510FFF77B
:1028A00018F8F1B241F2081202EB4510FFF711F8E7
:1028B0004FF4847101EB45100421FFF70AF800BFC3
:1028C0004FF4847101EB4510FFF71CF80028F7D195
:1028D00017E04FF4427101EB4510FFF713F817288A
:1028E00000D116E02846FFF7ABF900F0080040B130
:1028F0004FF4027101EB45100821FEF7EAFF0027B3
:1029000007E04FF4427101EB4510FEF7FBFF15287D
:10291000DFD100BF3846BDE8F08110B504464FF462
:10292000847101EB44100821FEF7D3FF00BF4FF480
:10293000847101EB4410FEF7E5FF0028F7D110BDCC
:102940002DE9F04704468846164600250027A9468B
:102950002046FEF7A9FFB04204DA2046FEF7A4FFA6
:10296000074600E0374600BF2046FFF77BF9814667
:102970004FF4427101EB4410FEF7C4FF0546172DDA
:1029800003D01C2D01D0002701E0B945ECDB00BFCE
:102990003A4641462046FFF7CDF94FF4847101EBEA
:1029A00044102021FEF795FF00BF4FF4847101EB26
:1029B0004410FEF7A7FF0028F7D113E04FF442714F
:1029C00001EB4410FEF79EFF0546172D0AD01C2D83
:1029D00008D06EA001F004FC2046FFF789FE00201D
:1029E000BDE8F0874FF4027101EB4410FEF78AFF57
:1029F00000F010001028E1D14FF4027101EB4410F7
:102A00001021FEF766FF4FF4027101EB4410102114
:102A1000FEF75FFF3846E3E72DE9F04104460E4636
:102A200015460027002D15DD2A4631462046FFF7C2
:102A3000BBF94FF4847101EB44104021FEF749FFCC
:102A400000BF4FF4847101EB4410FEF75BFF0028D8
:102A5000F7D12F463846BDE8F0812DE9F04704460E
:102A6000894616461D46089F4FF000082046FEF78F
:102A70001BFFB04204DA2046FEF716FF804600E056
:102A8000B046287828B9687818B9A87808B9E878DD
:102A900000B117B94FF0000863E0297840F608420A
:102AA00002EB4410FEF715FF697840F6085202EB7E
:102AB0004410FEF70EFFA97840F6086202EB4410BE
:102AC000FEF707FFE97840F6087202EB4410FEF7C4
:102AD00000FF390A41F2080202EB4410FEF7F9FE4A
:102AE000F9B241F2081202EB4410FEF7F2FE424640
:102AF00049462046FFF71EF94FF4847101EB44105C
:102B00002021FEF7E6FE00BF4FF4847101EB441074
:102B1000FEF7F8FE0028F7D112E04FF4027101EB46
:102B20004410FEF7EFFE00F0080048B14FF40271C8
:102B300001EB44101821FEF7CCFE0020BDE8F08721
:102B40004FF4027101EB4410FEF7DCFE00F01000C0
:102B50001028E2D14FF4027101EB44101021FEF76E
:102B6000B8FE4046EAE72DE9FC5F05468A469146F5
:102B70001E46DDF8308000270024A346B9F1000F7F
:102B800071DD42F608010BE0CC00002053454E44B5
:102B90005F4F4B2050726F626C656D21210D0A00F2
:102BA00001EB4510FEF7AEFE044642F6081101EBBC
:102BB0004510FEF7A7FE00EB042084B2200200EBD4
:102BC000451000F1180B082101EB4510FEF79AFEA5
:102BD00000F00700022804D0032845D0042878D14B
:102BE00078E0082269465846FEF7CDFE04F1080059
:102BF00084B29DF8000030709DF8010070709DF85F
:102C00000200B0709DF80300F0709DF80400A8F871
:102C100000009DF8050098F8001000EB0120A8F8CE
:102C200000009DF806709DF8070000EB072087B2B2
:102C3000200200EB451000F1180B3A465146584669
:102C4000FEF7A1FEE01984B2210A42F6080202EB67
:102C50004510FEF73EFEE1B242F6081202EB4510C7
:102C6000FEF737FE6AE07AE0062269465846FEF72C
:102C70008AFEA01D84B29DF8000030709DF801000E
:102C800070709DF80200B0709DF80300F0709DF820
:102C900004709DF8050000EB072087B2200200EBCE
:102CA000451000F1180B3A4651465846FEF76BFEA8
:102CB000E01984B2210A42F6080202EB4510FEF741
:102CC00008FEE1B242F6081202EB4510FEF701FEE3
:102CD00034E032E0022269465846FEF754FEA01C5A
:102CE00084B29DF800709DF8010000EB0720801E63
:102CF00087B240F2EA50874204DD1AA001F070FA70
:102D000000BFFEE7200200EB451000F1180B3A4629
:102D100051465846FEF737FEE01984B2210A42F6C2
:102D2000080202EB4510FEF7D4FDE1B242F60812AC
:102D300002EB4510FEF7CDFD00E000BF00BF4FF4F1
:102D4000847101EB45104021FEF7C3FD00BF4FF435
:102D5000847101EB4510FEF7D5FD0028F7D1384608
:102D6000BDE8FC9F646174615F6C656E206F766581
:102D70007220313531340D0A0000000010B50020FA
:102D800073490860002431E054B97248005D01289D
:102D900002D17149087028E000206F49087024E0D2
:102DA000192C16DA002C14DD6A48005D01280AD1BE
:102DB000674800684000664908600846006840F0BF
:102DC0000100086011E06248006840006049086046
:102DD0000BE0192C09D15F48005D012802D15F4941
:102DE000087002E000205D490870641C1A2CCBDBDF
:102DF000574801685AA001F0F3F910BD014639297E
:102E000003DC302901DB01207047662903DC6129DE
:102E100001DB0220F8E7462903DC412901DB02201F
:102E2000F2E70A2901D10320EEE70020ECE770B5B4
:102E3000002500244B4801884B4801F0C5FA00BF2B
:102E400031E04A49485DFFF7D9FF012805D0022843
:102E500015D0032825D1641C23E0434850F82400F2
:102E60000001414941F82400084650F824003F4938
:102E7000495D303908433C4941F8240011E03A48A3
:102E800050F824000001384941F82400084650F861
:102E900024003649495D57390843334941F8240035
:102EA00000BF00BF6D1C2F4800888542C9DB00258C
:102EB00006E02D4850F8251029A001F091F96D1C6D
:102EC000A542F6DBE0B22A49087070BD0246294BE4
:102ED0001A7002F47F4109121846417002F47F0112
:102EE0000914817002F07F410916C8B2D87070478A
:102EF00000B50346002200201F490860024624E076
:102F0000985CFFF77BFF012804D002280ED003282D
:102F100018D117E018480068000117490860985C4C
:102F2000303809680843144908600BE0124800680B
:102F3000000111490860985C5738096808430E4938
:102F4000086000BF00BF501C0246082AD8DB00BD45
:102F5000D8000020362B00208100002082000020B5
:102F600025780A008A000020483100200401002052
:102F7000D0000020E0000020DC00002010B56FF041
:102F8000040000F0F8FE2E4800682E49B0FBF1F076
:102F90002D4908700846007800EB4001C1EBC010D5
:102FA0004FF6FF7101EAC0002849088010BD0146B4
:102FB000254A12784A434FF0E0235A6100229A6171
:102FC0001A46126942F001021A6100BF4FF0E02276
:102FD000106900F001021AB100F48032002AF5D025
:102FE0004FF0E022126922F001024FF0E0231A6153
:102FF00000229A6170470146144A12884A434FF0F2
:10300000E0235A6100229A611A46126942F00102D5
:103010001A6100BF4FF0E022106900F001021AB1FE
:1030200000F48032002AF5D04FF0E022126922F03D
:1030300001024FF0E0231A6100229A6170470000FC
:103040005400002000127A00E4000020E600002076
:10305000014600BF704700BF494A128802F0400293
:10306000002AF9D0C2B2464B1B1D1A80704710B51A
:1030700086B00446012144F2040000F0C5FB4FF481
:103080000070ADF8140003208DF8160018208DF89C
:10309000170005A93B4800F0FBF84FF48060ADF83D
:1030A000140004208DF8170005A9364800F0F0F848
:1030B00025208DF8000003208DF801008DF8020016
:1030C00001208DF80300684600F00BFE01940020FB
:1030D000ADF80800ADF80A00ADF80C00ADF810002E
:1030E0000C20ADF80E0001A9254800F034FC0122A7
:1030F00040F22551224800F0C6FC0121204800F092
:10310000B6FC06B010BD10B540F225511C4800F0C9
:103110009FFD10B31A4800F01BFDC4B21A48008886
:1031200000F40040C8B91848008800F4804060B13D
:103130000A2C03D000201449088020E0124800889F
:1031400040F400401049088019E00D2C06D10E48CB
:10315000008840F480400C49088010E00A4800884C
:10316000C0F30D0009490C5407480088401C06496B
:10317000088008460088C72801DD0020088010BDAF
:103180000038014000080140EC00002054310020CC
:103190000948804709480047FEE7FEE7FEE7FEE7EB
:1031A000FEE7FEE7FEE7FEE7FEE7FEE70448054927
:1031B000054A064B70470000CF06000831010008A1
:1031C00080320020803800208034002080340020AD
:1031D00010B50446CC48844208D10121042000F0F7
:1031E0002DFB0021042000F029FB46E0C748844263
:1031F00008D10121082000F021FB0021082000F067
:103200001DFB3AE0C248844208D10121102000F0A1
:1032100015FB0021102000F011FB2EE0BD48844278
:1032200008D10121202000F009FB0021202000F01E
:1032300005FB22E0B848844208D10121402000F07B
:10324000FDFA0021402000F0F9FA16E0B34884426C
:1032500008D10121802000F0F1FA0021802000F047
:10326000EDFA0AE0AE48844207D10121801500F052
:10327000E5FA0021A01500F0E1FA10BD10B501211A
:10328000084600F0DBFA0021012000F0D7FA10BD5B
:103290002DE9F041024600250026002000230024ED
:1032A000002791F803C00CF00F0591F803C00CF053
:1032B000100CBCF1000F03D091F802C04CEA0505D8
:1032C00091F800C0BCF1000F31D0146800202BE051
:1032D0004FF0010C0CFA00F3B1F800C00CEA030641
:1032E0009E4220D183004FF00F0C0CFA03F7BC4331
:1032F00005FA03FC4CEA040491F803C0BCF1280F62
:1033000006D14FF0010C0CFA00FCC2F814C00AE020
:1033100091F803C0BCF1480F05D14FF0010C0CFA35
:1033200000FCC2F810C0401C0828D1D31460B1F8CA
:1033300000C0BCF1FF0F34DD546800202EE000F126
:10334000080C4FF0010808FA0CF3B1F800C00CEAC1
:1033500003069E4221D183004FF00F0C0CFA03F7B5
:10336000BC4305FA03FC4CEA040491F803C0BCF129
:10337000280F05D100F1080C08FA0CF8C2F81480E7
:1033800091F803C0BCF1480F07D100F1080C4FF0D1
:10339000010808FA0CF8C2F81080401C0828CED3A7
:1033A0005460BDE8F0814FF6FF7101800221817009
:1033B0000421C17070470246002093680B400BB196
:1033C000012000E0002070470146886880B2704705
:1033D00002460020D3680B400BB1012000E0002022
:1033E00070470146C86880B270470161704741610B
:1033F00070470AB1016100E041617047C1607047E8
:103400004FF480320A4382618161826182698269FC
:10341000704702460020434B18684FF680731840EF
:1034200040EA021008433F4B186070473E49C861AC
:103430007047F0B50A46002300240021002500F063
:103440000046B6F1004F02D1364EF16901E0354E2B
:103450007168C0F3034583B200F44016B6F5401F0F
:1034600008D121F070612F4E766826F070662D4FDE
:103470007E6012E000F48016B6F5801F06D10326A8
:1034800006FA05F4A14341F0706106E0460D3601ED
:1034900003FA06F6B14341F0706122B1460D3601E0
:1034A00003FA06F6314300F00046B6F1004F02D1B0
:1034B0001C4EF16101E01B4E7160F0BD30B5002281
:1034C0008B071C0F0F2303FA04F2164B08338C10E2
:1034D00053F824309343134C08348D1044F82530AE
:1034E00023468C1053F824308C07240F00FA04F480
:1034F00023430C4C08348D1044F8253030BD0A4964
:10350000DC3108607047000000080140000C0140F9
:10351000001001400014014000180140001C01404F
:10352000002001400000014000002042DF48006808
:1035300040F00100DD49086008464068DC49084069
:10354000DA49486008460068DA490840D749086007
:103550000846006820F4802008600846406820F48F
:10356000FE0048604FF41F0088607047CF4909682B
:1035700021F48031CD4A11601146096821F480217F
:103580001160B0F5803F03D0B0F5802F0ED106E07A
:10359000C649096841F48031C44A116007E0C34953
:1035A000096841F4A021C14A116000E000BF00BFDA
:1035B000704710B501460022002300204A11012A5D
:1035C00002D1BA4C236806E0022A02D1B74C236A22
:1035D00001E0B64C636A01F01F02012494401C40D4
:1035E0000CB1012000E0002010BD38B50020009093
:1035F0000024002500BF3120FFF7DBFF05460098BF
:10360000401C00900098B0F5A06F01D0002DF2D0C2
:103610003120FFF7CEFF08B1012400E0002420464E
:1036200038BD01460020A14A106820F0F80040EAA9
:10363000C10010607047A049086070470246002032
:103640009A4B586820F47C1042EA01031843974BC8
:103650005860704798490866704701460020934AB1
:10366000506820F003000843506070478F4840685E
:1036700000F00C007047014600208C4A506820F092
:10368000F00008435060704701460020874A5068A8
:1036900020F4E06008435060704701460020834AF0
:1036A000506820F4605040EAC1005060704729B172
:1036B0007E4A527A02437D4B5A7204E07B4A527A28
:1036C00082437A4B5A7270477B49D8310860704701
:1036D00001460020754A506820F44040084350607D
:1036E00070470021714A20321170704A82F8201010
:1036F000012802D004280AD104E001216B4A2032BB
:10370000117005E00521694A2032117000E000BF08
:1037100000BF70476949086070476449096A0143FE
:10372000624A11627047654944390860704730B594
:1037300000210022002400235C4D6D6805F00C017F
:1037400021B1042905D0082923D105E05C4D05608D
:1037500022E05B4D05601FE0544D6D6805F470126A
:10376000524D6D6805F48034022505EB92421CB978
:10377000544D554305600BE04C4D6D6805F4003524
:103780001DB1504D5543056002E04D4D5543056058
:1037900002E04B4D056000BF00BF444D6D6805F071
:1037A000F0010909484D6B5C0568DD4045603F4DFF
:1037B0006D6805F4E061090A434D6B5C4568DD40C6
:1037C00085603A4D6D6805F46051C90A3E4D6B5CE9
:1037D0004568DD40C560354D6D6805F44041890B95
:1037E0003A4D6B5CC568B5FBF3F5056130BD29B199
:1037F0002E4A526902432D4B5A6104E02B4A52690A
:1038000082432A4B5A61704729B1284A9269024380
:10381000264B9A6104E0254A92698243234B9A61C0
:10382000704729B1214AD2690243204BDA6104E092
:103830001E4AD26982431D4BDA61704729B11B4A87
:10384000D2680243194BDA6004E0184AD268824316
:10385000164BDA60704729B1144A12690243134BC0
:103860001A6104E0114A12698243104B1A617047D1
:1038700012494039086070470F49C86470470B49C6
:10388000C87170470948406A40F080700749486233
:10389000704701460020054A92680A400AB101209B
:1038A00000E0002070470149887270470010024014
:1038B0000000FFF8FFFFF6FE000042428004424293
:1038C00000127A0000093D00EE000020FE000020FA
:1038D00010B50446FB48844209D101218803FFF753
:1038E000ADFF00214FF48040FFF7A8FF32E0F6481B
:1038F000844209D101214804FFF7ADFF00214FF4B4
:103900000030FFF7A8FF25E0F048844209D10121EB
:103910008804FFF7A0FF00214FF48020FFF79BFFF2
:1039200018E0EB48844209D10121C804FFF793FF56
:1039300000214FF40020FFF78EFF0BE0E5488442A2
:1039400008D101210805FFF786FF00214FF4801000
:10395000FFF781FF10BD2DE9F04786B005460E4602
:103960000024A24600BFA1460027B08900B100BFD5
:103970002F462C8A4CF6FF700440F08804432C82BA
:10398000AC894EF6F3100440B08831890843718940
:1039900008430443AC81AC8A4FF6FF400440B08931
:1039A0000443AC8201A8FFF7C2FEC648874202D199
:1039B000DDF810A001E0DDF80CA0A88900F40040BB
:1039C00040B10AEBCA0000EB0A1031684900B0FBB5
:1039D000F1F807E00AEBCA0000EB0A103168890031
:1039E000B0FBF1F86420B8FBF0F004012009642179
:1039F00001FB1089A88900F4004040B1322000EB9F
:103A0000C900B0FBF1F000F00700044308E03220E9
:103A100000EB09106421B0FBF1F000F00F0004434B
:103A20002C8106B0BDE8F0874FF4165101600021EB
:103A30008180C18001810C214181002181817047F9
:103A400010B502460020108A4FF2FF0318400B8881
:103A50004C8823438C882343CC882343184310820B
:103A600010BD0021018041808180C180704721B15B
:103A7000828942F40052828104E082894DF6FF730C
:103A80001A4082817047F0B50346002400260025C5
:103A9000002040F66A17B94200D100BF1846C1F3B2
:103AA000421401F01F06012707FA06F5012C01D187
:103AB0000C3004E0022C01D1103000E014301AB1B7
:103AC00007682F43076002E00768AF430760F0BD57
:103AD0001AB1838A0B43838202E0838A8B438382F9
:103AE0007047028A4FF6F0731A400282028A0A4334
:103AF0000282704782894FF2FF731A408281828965
:103B00000A438281704721B1828942F00202828198
:103B100004E082894FF6FD731A4082817047028A61
:103B20004FF6DF731A400282028A0A43028270470C
:103B300021B1028A42F48042028204E0028A4BF6FA
:103B4000FF731A4002827047C1F3080282807047F7
:103B500001468888C0F308007047818941F001015F
:103B600081817047028BD2B20283028B42EA01222A
:103B700002837047028B02F47F420283028B0A4366
:103B80000283704721B1828A42F02002828204E0DF
:103B9000828A4FF6DF731A408282704721B1828A8F
:103BA00042F01002828204E0828A4FF6EF731A40DC
:103BB0008282704721B1828A42F00802828204E048
:103BC000828A4FF6F7731A408282704721B1828948
:103BD00042F40042828103E08289C2F30E028281B4
:103BE000704721B1828A42F40062828204E0828AB4
:103BF0004FF2FF731A4082827047828A4FF6FB733E
:103C00001A408282828A0A438282704721B1828A64
:103C100042F00202828204E0828A4FF6FD731A406B
:103C20008282704702460020B1F5007F00D100BFBC
:103C300013880B400BB1012000E00020704701F415
:103C40000072B2F5007F00D100BFCA430280704706
:103C500070B50246002400230025002040F66A16B5
:103C6000B14200D100BFC1F3421501F01F0301268C
:103C700006FA03F3012D02D19689334006E0022DA6
:103C800002D1168A334001E0968A33400C12012695
:103C900006FA04F41688344013B10CB1012000E098
:103CA000002070BD10B50022002340F66A14A14226
:103CB00000D100BF0A1201249440A3B2DC43048067
:103CC00010BD0000003801400044004000480040A2
:103CD000004C00400050004031490143314A11601E
:103CE000704770B5002100230F22C47804B32D4C17
:103CF000246804F4E064C4F5E064210AC1F104031B
:103D0000CA40447804FA03F184781440214309013D
:103D1000254C0678A155047804F01F050124AC4019
:103D200005786D11AD0005F1E025C5F8004109E009
:103D3000047804F01F050124AC401C4D0678761170
:103D400045F8264070BD1A4A0A400243154B1B1F16
:103D50001A60704739B1134A121D12680243114BA1
:103D60001B1D1A6006E00F4A121D126882430D4B9C
:103D70001B1D1A607047042808D14FF0E021096923
:103D800041F004014FF0E022116107E04FF0E02123
:103D9000096921F004014FF0E02211617047000031
:103DA0000000FA050CED00E000E400E080E100E036
:103DB00080FFFF1F10B50446BE48844208D1012190
:103DC0008014FFF73BFD0021A014FFF737FD16E03C
:103DD000B948844208D101210014FFF73CFD0021BD
:103DE0002014FFF738FD0AE0B448844207D10121CE
:103DF000C013FFF730FD0021E013FFF72CFD10BDCD
:103E000010B50022028802F441520B884C882343EB
:103E10008C882343CC8823430C8923434C89234338
:103E20008C892343CC8923431A430280838B4FF22E
:103E3000FF74234083830B8A038210BD2DE9F04F6A
:103E400085B005460C464FF0000902274FF00008E8
:103E50004FF0010B0026B246A88B4FF240010840FC
:103E6000A88302202884B5F81C90A068022801D1FC
:103E700000BF38E0A08810B94FF0010B01E04FF00F
:103E8000020B8D48854200D100E000BF6846FFF775
:103E90004EFCDDF800A0E088B0F5007F0AD14FEAC3
:103EA0001A2000EB80004000A168B0FBF1F0401D3B
:103EB00086B20BE04FEA4B10BAFBF0F000EB80004B
:103EC0004000A168B0FBF1F0401D86B20A20B6FBAD
:103ED000F0F606F00108A6EB0800C0F34F074FF616
:103EE000FF7000EA0828022F01DBFF2F02DD022706
:103EF0004FF00008E08840EA080038432884A08892
:103F0000A1890843618808432188084340F4006080
:103F100040EA0909A5F81C9005B0BDE8F08F002122
:103F2000018041808180C180018141818181C18185
:103F30000721018270470021018041808180C1807A
:103F40000221816000218181704721B1028842F005
:103F50004002028004E002884FF6BF731A400280DC
:103F6000704721B1828B42F48062828304E0828BAD
:103F70004FF6FF331A408283704730B50024002388
:103F80000C110125A540ABB21AB185881D4385806F
:103F900002E085889D43858030BD1AB183880B433C
:103FA000838002E083888B438380704781817047E0
:103FB0000146888970474FF6FF62914204D002881B
:103FC00042F48072028004E002884FF6FF631A40D8
:103FD0000280704721B1828842F00402828004E0AE
:103FE00082884FF6FB731A408280704702884FF236
:103FF000FF731A40028002880A43028070470188DA
:1040000041F480510180704721B1028842F400528E
:10401000028004E002884DF6FF731A400280704768
:1040200002460020012901D0108B00E0908A7047E1
:104030000146088A7047B1F5804F04D1028842F4E6
:104040008042028004E002884BF6FF731A4002802F
:1040500070470246002013890B400BB1012000E09D
:1040600000207047CA4302817047F0B50246002025
:1040700000240023002501F00F070126BE40B4B242
:104080000B1101269E40B3B2968806EA03051689F5
:10409000264016B10DB1012000E00020F0BD10B5A2
:1040A000002201F00F040123A3409AB2D3430381FD
:1040B00010BD00000030014000380040003C0040CE
:1040C000002044490860091D0860091D0860091D99
:1040D000086041483F4914310860704700213D495C
:1040E0008279002A3AD00A46126803689A430B463E
:1040F0001A600A1D126803689A430B1D1A60027940
:1041000011440A6803681A430A60324A0832126886
:1041100003689A432F4B08331A601A1D126803680C
:104120009A432C4B0C331A604279102A0ED11A1F75
:10413000126803681A43274B08331A601A1D126865
:1041400003681A43234B0C331A600DE0214942796E
:1041500011440A6803681A430A6005E002791144B1
:104160000A6803689A430A60704700210160017180
:104170000C21417100218171704716491031096885
:104180000143144A10321160704701460020114A61
:10419000143212680A400AB1012000E00020704782
:1041A0000C49143108607047014600200022094B79
:1041B0001B6803EA0102074B14331B680B4013B161
:1041C0000AB1012000E00020704702491431086064
:1041D0007047000000040140FFFF0F00704700001F
:1041E0000FB4044910B503AA029800F087F910BC77
:1041F0005DF814FBE80000202DE9F0410E4604466E
:10420000002020622046E168884730B3252805D089
:10421000D4E901219047206A401CF2E7E16820467A
:1042200000278847050018D0A5F14100192802D8B9
:1042300020354FF400673246294620462760FBF7B9
:10424000B1FF40B1012804D0F61D26F0070608365C
:10425000D8E7361DD6E72846DAE7206ABDE8F081C0
:1042600070B50C460546012A05D02878800600D591
:10427000EA69002302E0012305E05B1C934202D2BD
:10428000E05C0028F9D1A869E618C01AA861286A7C
:10429000184428622846AFF3008004E0D5E90121E4
:1042A00014F8010B9047B442F8D32846AFF30080CE
:1042B00070BD00002DE9F041064600241068752904
:1042C000314616A510D0AFF30080002802DA404234
:1042D00013A507E031688A0701D512A502E0490756
:1042E00004D511A5012401E0AFF3008000210A22CA
:1042F00006F1240709E0B0FBF2FCB0FBF2F302FB8D
:104300001C00303078541846491C0028F3D123464D
:104310002A463046BDE8F04100F081B800000000B8
:104320002D0000002B0000002000000070B50446A6
:104330000D4621461068AFF300802188090502D59B
:104340000F4A7A4402E00E4A7A440E32002104F108
:10435000240305E000F00F060009965D5E54491C39
:104360000028F7D120780023000704D5702D02D053
:1043700009B1022311322046BDE8704000F04FB869
:104380000A0300004FF000020429C0F0128010F070
:10439000030C00F01B80CCF1040CBCF1020F18BF21
:1043A00000F8012BA8BF20F8022BA1EB0C0100F0B4
:1043B0000DB85FEAC17C24BF00F8012B00F8012B87
:1043C00048BF00F8012B70474FF0000200B51346BC
:1043D00094469646203922BFA0E80C50A0E80C5025
:1043E000B1F12001BFF4F7AF090728BFA0E80C50D6
:1043F00048BF0CC05DF804EB890028BF40F8042BCF
:1044000008BF704748BF20F8022B11F0804F18BF3B
:1044100000F8012B704770477047704770472DE9CF
:10442000F0470D4699469246044600F1240801687B
:10443000880604D5E06921F01001216000E0012028
:10444000A84201DD471B00E00027A1697A1902EBB1
:104450000900081AA0612078C00602D42046AFF3F4
:104460000080002608E0D4E901211AF806009047F0
:10447000206A401C761C20624E45F4DB2078C00682
:104480000AD52046AFF3008006E0D4E901213020B0
:104490009047206A401C2062381EA7F10107F4DC17
:1044A00007E0D4E9012118F805009047206A401C74
:1044B0002062281EA5F10105F3DC2046AFF3008041
:1044C0002078000602D50220BDE8F0870120FBE736
:1044D00010B5436913B1AFF3008001E0FFF7C0FEF0
:1044E000012010BD127800F124010A7000224A70E8
:1044F0000122EDE711684FF0FF32E9E7074B70B595
:104500000D467B4400F011F80446284600F020F8E0
:1045100010B14FF0FF3070BD204670BD51EBFFFF72
:1045200001694A1C02610878704700B58FB0CDE977
:1045300001310021059105497944CDE90310114667
:104540006846FFF759FE0FB000BD0000E5FFFFFF12
:10455000007B00F080007047754600F02BF8AE46F7
:1045600005006946534620F00700854618B020B57F
:10457000FEF71CFEBDE820404FF000064FF000079C
:104580004FF000084FF0000B21F00701AC46ACE8FB
:10459000C009ACE8C009ACE8C009ACE8C0098D4668
:1045A000704710B50446AFF300802046BDE81040C8
:1045B000FBF710BE004870471C32002000002000AE
:1045C000000008001000180020002800300038000B
:1045D000400050006000700080009000A0000000CB
:1045E000000020002800300038004000500060002B
:1045F00070008000A000C000E00000014001000049
:1046000007000100108006001C00123E17B8143E7F
:1046100012F8013E11B8070017972000D2FF3000B2
:10462000D11111312480043724C0813B2480013111
:104630002480813B2480043F24C008280048F136B0
:10464000119807000100288006000200002A0E04CD
:1046500030313233343536373839414243444546B8
:1046600040305800303132333435363738396162B2
:1046700063646566403078009846000800000020BA
:10468000040100006C0100089C47000804010020A0
:104690007C3700008801000852494646D486010054
:1046A00057415645666D742010000000010001005E
:1046B000401F0000803E0000020010006461746131
:1046C000A0860100000000000000000000000000C3
:1046D00000000000000000000000000000000000DA
:1046E00000000000000000000000000000A24A04DA
:1046F0000000000000000000010203040607080992
:1047000014EF010000000000E6D2060F0A0F0000BF
:10471000000000000000000000000000C0A80165CB
:10472000401F00000008DC111111C0A8016EFFFF3E
:10473000FF00C0A80101000000007017581B000016
:104740000200000000000000000000000000000067
:104750000000000002020202020202020202020241
:104760000202020200000000000000001DFC5700D1
:104770000000000000000000000000000000000039
:10478000000000000000000000000102030401021C
:0C479000030406070809020406080000E4
:0400000508000131BD
:00000001FF
